:100000000C94DE000C94FB000C94602F0C94932D48
:100010000C94FB000C94FB000C94FB000C94FB0074
:100020000C94FB000C94FB000C94FB000C94FB0064
:100030000C94FB000C94FB000C94FB000C94D12955
:100040000C94FB000C94FB000C94FB000C94FB0044
:100050000C94FB000C94FB000C94242F0C94FB00DC
:100060000C94FB000C94FB000C94FB000C94FB0024
:100070000C94FB000C94762F0C94FB000C94672AD4
:100080000C94902A0C94B92A0C94FB000C94FB005D
:1000900087318731953174317E317E318E318E31A9
:1000A000A3317031BC31BC31BC31BC318131F63847
:1000B000F1380039FB380F3905390A390009121BAC
:1000C000242D363F48415A536C657E7719100B0238
:1000D0003D342F265158434A757C676E323B2029A8
:1000E000161F040D7A7368615E574C452B22393018
:1000F0000F061D14636A7178474E555C646D767FF8
:100100004049525B2C253E3708011A137D746F66F7
:1001100059504B42353C272E1118030A565F444D67
:10012000727B60691E170C053A3328214F465D54D7
:100130006B627970070E151C232A31384148535AD7
:10014000656C777E09001B122D243F3658514A43B7
:100150007C756E671019020B343D262F737A616827
:10016000575E454C3B3229201F160D046A63787197
:100170004E475C55222B3039060F141D252C373E77
:100180000108131A6D647F7649405B523C352E2777
:1001900018110A03747D666F5059424B171E050CE7
:1001A000333A21285F564D447B7269600E071C1557
:1001B0002A233831464F545D626B707911241FBE7B
:1001C000CFEFCDBFDFE3DEBF19E2A0E0B8E2EBEE98
:1001D000F4EB02C005900D92AE35B107D9F721E3DB
:1001E000AEE5B9E201C01D92AD3BB207E1F70E9456
:1001F0007D4E0C948F530C940000621B730B840B88
:10020000950B0895A4E0B0E0E8E0F1E00C946853A9
:100210008C010E94BC0169837A838B839C83F801E3
:100220008285938597FF0EC0E091BB31F091BC3180
:10023000309741F067EB71E3CE0101960995F80123
:1002400082879387F801828593851816190694F49E
:10025000092E000CAA0BBB0B49815A816B817C8152
:100260006A017B01C81AD90AEA0AFB0AC982DA8242
:10027000EB82FC8289819A81AB81BC814091B7314C
:100280005091B8316091B9317091BA31841B950B9E
:10029000A60BB70B89839A83AB83BC83B801CE01CD
:1002A00001960E947A0169817A818B819C812496D2
:1002B000E8E00C9481530FB6F8946093B3317093D7
:1002C000B4318093B5319093B6310FBE0895FC01DF
:1002D0000FB6F8946091B3317091B4318091B5311B
:1002E0009091B6310FBE309721F060837183828385
:1002F00093830895A4E0B0E0E0E8F1E00C94685343
:100300006C017B01E091BB31F091BC31309729F059
:1003100067EB71E309958C0102C00FEF1FEFF60147
:1003200040815181628173818091B7319091B83160
:10033000A091B931B091BA31840F951FA61FB71F94
:10034000101611064CF4A801012E000C660B770B59
:10035000840F951FA61FB71F89839A83AB83BC8325
:10036000B701CE0101960E946702F7010287138749
:100370002496E8E00C948153A0E0B0E0E2ECF1E0D8
:100380000C946453EC01EE81FF818F010456110936
:10039000B9F0CF01855691096C0197FF03C023E0A6
:1003A000C20ED11CD594C794D594C7946CE97FEF45
:1003B0000E94F54EC60ED71E8FEFC81AD80A02C08B
:1003C000C12CD12C2DE631E0D8010E945F4F0D2CBD
:1003D000000CEE08FF08C60ED71EE81EF91E8B8122
:1003E000082E000C990B8C01015011092D8122302F
:1003F0002CF4222379F1015E1F4F2CC0CF018459C8
:10040000984F0E942E03282F30E0255C3F4F200F8D
:10041000311F8D81082E000C990B029785309105B4
:1004200014F027563F4F65E070E00E94F54EAC0196
:1004300097FF02C04F5F5F4F559547959DE3949F8F
:100440008001959F100D1124020F131F80FF02C021
:10045000015E1F4FC801110FAA0BBB0B9C01AD0120
:100460002C0D3D1D4E1D5F1D60E871E581E090E0A3
:100470000E944E534B015C01AA810A2E000CBB0B5B
:1004800020E13EE00E945F4F6B017C01A9810A2EB2
:10049000000CBB0B2CE330E00E945F4FC60ED71E52
:1004A000E81EF91E6881862F660F990BAA0BBB0BFD
:1004B0008C0D9D1DAE1DBF1DBC01CD01680D791DAC
:1004C0008A1D9B1DCDB7DEB7ECE00C947D53A8E0F0
:1004D000B0E0EDE6F2E00C9468538B01FC01608122
:1004E00071818281938120E831E541E050E00E94F2
:1004F000094F69017A012CE330E040E050E00E94AE
:100500002B4F29833A834B835C8389819A81AB810A
:10051000BC81F80160836CE370E00E94F54EDC0161
:10052000CB01F801A1838283C601069667E070E0E3
:100530000E94E14E84832DEA3EE840E050E0C7018E
:10054000B6010E942B4F29833A836D837E838F836C
:10055000988789819A8124E6289F6001299FD00C81
:1005600011246D817E818F81988525EB35E040E0F7
:1005700050E00E942B4F29833A836D837E83E9806C
:10058000FA80EE0CFF1CEE0CFF1CEC0CFD1C8D81A8
:100590009E81F5E6EF16F10410F0019604C024E602
:1005A000E216F10419F021E030E002C020E030E072
:1005B000A90144595E4F4817590768F46DE671E088
:1005C000821B930B0E94F54EDC01CB01E80EF91E55
:1005D000CD0120E030E044E6E40EF11CF801E682B3
:1005E000F78280879187255C3F4F8217930748F4F5
:1005F0006FE170E00E94F54EDC01CB01F8018583CC
:1006000022C069E970E0821B930B0E94F54EDC0169
:10061000CB01F82EFF0CFF0CF80E6DE370E0CD015E
:100620000E94F54EDC01CB01E82EEE0C6FE170E08C
:10063000CD010E94F54EDC01CB0122E0280FF20E25
:10064000FE0CF801F582A383F801128613868381DC
:100650008F5F83832896E8E00C9481539C0123707C
:100660003327232B59F464E670E00E94F54E892B62
:1006700039F46370772781E0672B19F080E00895E3
:1006800081E0089588EDA89584BF80910001816084
:10069000809300018091010181FDFCCFFFCFFC011F
:1006A00080818053853028F40E94374B84E697EE92
:1006B00002C088E697EE0C94325081EA97EE9F9341
:1006C0008F9387EA97EE9F938F930E941C500F9011
:1006D0000F900F900F9008958EEA97EE9F938F934F
:1006E00087EA97EE9F938F930E941C500F900F9074
:1006F0000F900F9008958091612990916229009741
:1007000069F09F938F9388EA97EE9F938F930E944F
:100710001C500F900F900F900F90089582EB97EE62
:100720009F938F930E941C500F900F9008950F93EA
:100730001F93CF93DF93CDB7DEB7C85CD109CDBF90
:10074000DEBF8E010F5F1F4FC8010E942A07811173
:1007500003C01F930F9304C08EEB97EE9F938F936C
:100760000E941C500F900F90C853DF4FCDBFDEBFCB
:10077000DF91CF911F910F910895EF92FF921F93F8
:10078000CF93DF93CDB7DEB72697CDBFDEBF1B82F9
:100790001C821D821E8264ED77EE0E948F4F89833A
:1007A0009A839E012F5F3F4F790110E0009771F00F
:1007B000133061F0F701819391937F011F5F64ED26
:1007C00077EE80E090E00E948F4FF0CFE980FA80D2
:1007D000E114F104D9F02B813C818D819E8121159A
:1007E000310519F4009779F417C0009761F4C90135
:1007F0000E94714F9EEF980F923008F443C08130F1
:1008000059F012E01DC00E94714F182F113021F0D5
:10081000C8F11430A8F036C04EE150E0B70181EBCA
:1008200090E30E94DE4F62E277EE80ED90E30E945B
:10083000D74F65EA77EE8FEE90E30E94D74F33C033
:100840004EE150E0B70181EB90E30E94DE4F6B81F7
:100850007C814EE150E080ED90E30E94DE4F1F92DC
:100860001F9386ED97EE9F938F938FEE90E39F9368
:100870008F930E9492500F900F900F900F900F90B7
:100880000F9011C089ED97EE9F938F930E941C509B
:100890000F900F902696CDBFDEBFDF91CF911F91B5
:1008A000FF90EF9008958BE198EE9F938F930E94B5
:1008B0001C500E94850C0F900F90882321F00E94FD
:1008C0005D1F0E94771F2696CDBFDEBFDF91CF91BF
:1008D0001F91FF90EF900C9470090E945D1F0E9481
:1008E0004A2284E697EE0C9432508F929F92AF92F8
:1008F000BF92DF92EF92FF920F931F93CF93DF93FC
:10090000F12C00E719EEC1E2D8EE0E94C32A882339
:1009100009F480C00E94CA2AE09164298D3019F040
:100920008A3009F068C0F0E0EB59F64D10829091E2
:100930006329911153C091E08A3029F420916029F4
:100940002D3009F490E080936029992309F446C082
:10095000F11044C060E270E085E699E20E94C34F66
:100960007C01009719F0DC011D927D01E5E6F9E2BA
:1009700001900020E9F73197E556F942DE2E80E537
:10098000A82E89EEB82EF50180809180B40185E60D
:1009900099E20E94CE4FF40101900020E9F73197CF
:1009A000E819F90981110CC0DE120AC0D5011296AE
:1009B000ED91FC911397309719F0C70109950CC080
:1009C000B4E0AB0EB11C0A151B05E9F6DF93CF931B
:1009D0000E941C500F900F90FF24F3948091632984
:1009E000882321F08AE099EE0E9432501092642907
:1009F000109263298ACFE43648F491E09E0F9093D9
:100A00006429F0E0EB59F64D80837FCF81E080933D
:100A100063297BCF62E370E080E090E0DF91CF91CB
:100A20001F910F91FF90EF90DF90BF90AF909F903C
:100A30008F900895809140088091440887FDFACFF7
:100A40008091450880688093450842E350E060E06B
:100A500070E080E098E20C94242D809361299093BB
:100A600062290895E091C929F091CA29309759F077
:100A7000A081B1812C91022E000C330B482F50E045
:100A80002417350789F09F012B5F3F4F79F00580D0
:100A9000F681E02D4081042E000C550B90E04817A4
:100AA000590721F4C9010895CF01089580E090E02D
:100AB0000895823049F477276130710539F062304A
:100AC000710511F462E003C08FE20CC061E04230B6
:100AD00040F482E090E00E94DB4487FF08C08DE094
:100AE00001C086E18093CB298FEF9FEF0895082EF8
:100AF000000C990B0895AF92BF92CF92DF92EF92C4
:100B0000FF920F931F93CF93DF93CDB7DEB760971C
:100B1000CDBFDEBF8C015B016A010E9432057C0102
:100B2000892BA9F1F5018191919189839A832EE016
:100B3000DE01139601900D922A95E1F7823091051E
:100B400019F589839A834C2DBE016F5F7F4F802FEB
:100B50000E948145882391F0873F71F08A3FB9F464
:100B600017FF02C086E211C0AB2811F481E30DC06B
:100B7000CD28C1F786E109C085E007C082E0F70112
:100B8000848380E090E005C08FE28093CB298FEFD3
:100B90009FEF6096CDBFDEBFDF91CF911F910F9188
:100BA000FF90EF90DF90CF90BF90AF90089580932B
:100BB000C9299093CA290895CF92DF92EF92FF92AC
:100BC0000F931F93CF93DF93232B11F086E11BC06C
:100BD000EA017B016C0100E010E098010E944A46A6
:100BE0008823A1F0823F71F08A3F99F4D7FE02C0BA
:100BF00086E209C0EF2811F48EE005C0CD2B31F755
:100C000088E201C087E38093CB2903C080E090E0B5
:100C100002C08FEF9FEFDF91CF911F910F91FF9057
:100C2000EF90DF90CF900895CF93C82F0E943205A8
:100C3000009711F0FC0114828C2F0E94B946882382
:100C400051F0873F21F08A3F49F489E001C085E0F7
:100C50008093CB2903C080E090E002C08FEF9FEF2C
:100C6000CF91089598278927982708950E943205E3
:100C7000009719F0FC018481089580E00895EF92B7
:100C8000FF920F931F93CF93DF93232B11F086E1F5
:100C90001BC0EA018B017C0120E030E00E94E445AA
:100CA0008823A9F0823F79F08A3F99F4F7FE02C0C9
:100CB00086E20AC0012B11F48EE006C0C937D54088
:100CC00030F388E201C087E38093CB2902C0CE01D4
:100CD00002C08FEF9FEFDF91CF911F910F91FF9097
:100CE000EF900895EF92FF920F931F93CF93DF93AE
:100CF000E82EF62EEA010E9432058C01892B09F4B8
:100D000048C086E0F81641F18F1520F0A5E0FA16EC
:100D100041F03FC0B7E0FB16C9F1E9E0FE1659F01B
:100D200038C02097B1F1898187FD0BC083E0D801DD
:100D300014968C932EC0209761F188819981009739
:100D4000D1F48E2DEE0C990BDF91CF911F910F9165
:100D5000FF90EF900C9414062097D9F06A817B8164
:100D60001616170674F7D8011296ED91FC91139799
:100D7000888199810AC06A817B816115710509F3B7
:100D8000D8011296ED91FC911397099583E0F80133
:100D90008483DF91CF911F910F91FF90EF90089581
:100DA000CF92DF92EF92FF920F931F93CF93DF9337
:100DB000CDB7DEB72697CDBFDEBFE091CC29E111DC
:100DC00002C091E03AC00097B9F161157105A1F137
:100DD00069017A01AB01BC01CE0101960E948B1919
:100DE0008111EFCFA701960160E779EECE01019660
:100DF0000E94571B8111E5CFA7019601205F314F5B
:100E00004F4F5F4F64E779EECE0101960E94571B6A
:100E10008111D7CFA80168E779EECE0101960E9433
:100E2000F01A8111CECF60E070E0CE0101960E94F1
:100E3000DE1991E0811101C090E0892F2696CDBF87
:100E4000DEBFDF91CF911F910F91FF90EF90DF9068
:100E5000CF900895EF92FF920F931F93CF93DF935C
:100E6000CDB7DEB7C258D109CDBFDEBFF82EE92E0F
:100E700080E890E0CF57DF4F88839983C158D040F6
:100E80008AE098E20E94AF0C882311F081E03BC019
:100E90008BE1EDEBF9EEDE01969601900D928A95CD
:100EA000E1F7BE016F5B7F4F80E090E00E943B0F57
:100EB0008111ECCF9E012F573F4F8E010F5F1F4FC7
:100EC000A8016BE570E0CE0186960E94A211811107
:100ED000DDCFCF57DF4FE881F981C158D040E00F17
:100EE000F11F10821F930F938CE799EE9F938F93BE
:100EF000EF92FF920E9492500F900F900F900F90E0
:100F00000F900F9080E0CE57DF4FCDBFDEBFDF9157
:100F1000CF911F910F91FF90EF900895CF92DF92A4
:100F2000EF92FF920F931F93CF93DF93EC018AE030
:100F300098E20E94AF0C811128C089EA9DE20E94CC
:100F4000C41B811121C089EAE82E8DE2F82E6E01C2
:100F500082E1C80ED11C08EB19EEF70181917F01E7
:100F60001F928F931F930F93DF93CF930E94925002
:100F700022960F900F900F900F900F900F90CC161D
:100F8000DD0659F780E001C081E0DF91CF911F912C
:100F90000F91FF90EF90DF90CF90089580E398E25B
:100FA0000E94F90C8AE098E20E94AF0C882319F0A5
:100FB0001092CC29089580E090E00E94DC1181E03D
:100FC0008093CC290895CF93DF93CDB7DEB7609798
:100FD000CDBFDEBF2981217F2E7F298329EC3DE211
:100FE000288739878D879E876C87CE0101960E945E
:100FF0008D216096CDBFDEBFDF91CF9108950C9417
:10100000881FCF93DF93CDB7DEB76D97CDBFDEBF1F
:10101000CE0101962DE1FC0111922A95E9F722E01B
:101020002D872AE030E02E873F8727EB3FE22A8B8F
:101030003B8BEFEEFDE2EA8FFB8F01900020E9F79A
:101040003197EF5EFD42E88FF98F0E94F1206D9697
:10105000CDBFDEBFDF91CF9108958091AC318D7F00
:1010600084608E7F8093AC3160E070E0CB010895A6
:101070000F931F93CF93DF93CDB7DEB72C97CDBFE0
:10108000DEBF8B018B3109F467C020F4893009F48D
:1010900081C0B0C08C3221F0823309F444C0AAC0B0
:1010A000DB018C91813009F58091CF29882399F05B
:1010B0008AE598E20E94F42C1092CF2980E00E94E9
:1010C0000F4B44EF51E060E070E080E598E20E9451
:1010D000242D0E94FB488091AC3182608093AC311A
:1010E0000E948F0C0E94294B0FC081110DC042E35A
:1010F00050E060E070E08CE398E20E94242D809143
:10110000AC3181608093AC31E091CD29F091CE2952
:10111000309709F46FC08091AC3180FD6BC0D8016D
:101120008C91099567C088ED99EE0E941547811151
:1011300061C08091AC3180FF09C08CE398E20E94CD
:10114000F42C8091AC318E7F8093AC318091AC31A6
:101150008B7F8093AC314EC0FB01808191810097E1
:1011600009F448C024812B8325812A832681298381
:101170008C5697408F839887828181508E8383819C
:101180008C831B861C86CE0101960E9402010E9460
:101190005B0130C0FB01ED59FF4F808181112AC0F6
:1011A000319780811F928F9386ED97EE9F938F9357
:1011B0008FEE90E39F938F930E949250B80181EB42
:1011C00090E30E94D74FB8016F5D7F4F80ED90E3B1
:1011D0000E94D74F81E08093CF2940E050E0BA01D0
:1011E0008AE598E20E94242D0F900F900F900F90A7
:1011F0000F900F902C96CDBFDEBFDF91CF911F9146
:101200000F9108950E949E4064EF71E080E090E0AD
:10121000089580E090E00E94383F62E370E080E053
:1012200090E008950F931F93CF93DF93CDB7DEB770
:101230002E97CDBFDEBF8E010F5F1F4F8EE0F801EE
:1012400011928A95E9F788E398E089839A830E944E
:10125000B94480E090E00E9493350E94A32F8091D2
:101260001B3090911C308093CD299093CE290E9401
:10127000CC2FC8010E94FC3E0E949F442E96CDBFF9
:10128000DEBFDF91CF911F910F9108950F931F93B0
:10129000813079F48FEE90E30E94714F0FEF10E0F0
:1012A00020ED30E3482F6FE181EB90E30E94224074
:1012B00002C00E943A3F882339F08091AC318460AB
:1012C0008093AC3180E001C081E01F910F910895BF
:1012D00081E00E94460968EE73E080E090E00895A6
:1012E0008091AC3181FF07C00E942C4091E088239F
:1012F00019F090E001C091E0892F08950F931F939A
:10130000CF93DF93CDB7DEB7C858D109CDBFDEBFCD
:101310008E010F5F1F4F88E8D8011D928A95E9F76B
:1013200088E0E4E2F7EED80101900D928A95E1F7AA
:10133000FE01399689E1DF011D928A95E9F781E086
:101340008AA39AE09CA39BE0E5E4F7EEDE01959684
:1013500001900D929A95E1F7FE01F09690E1DF0180
:101360001D929A95E9F721968FAF219790EC2396DD
:101370009FAF239798EA24969FAF249725968FAF27
:10138000259726968FAF26970E940F4B41E064E386
:1013900078E2C8010E944740C857DF4FCDBFDEBF8B
:1013A000DF91CF911F910F910895CF93C62F809316
:1013B0001B3090931C300E941209C11103C00E947F
:1013C0007E0908C044EF51E060E070E080E598E2FB
:1013D0000E94242D42E350E060E070E086E498E251
:1013E000CF910C94242D1092D3291092D22960E031
:1013F00070E0CB010895411551056105710541F07B
:101400004093853050938630609387307093883056
:101410000895109285301092863010928730109285
:1014200088308091AC318D7F8093AC311092D2297D
:101430001092D1290E9412096BEF79E082E796E0C1
:101440000E94D2440E94331F8AE0E7EAF0E3DF0102
:101450001D928A95E9F7CF010E94D7050E945D1F72
:10146000FC01808991898093A7309093A8308FEFF9
:1014700097E08093A9309093AA308091B13088236F
:1014800029F081E09091EF30911101C080E00E943D
:101490004609882391F088E698E20E94F42C40E106
:1014A00057E260E070E082E798E20E94242D1092FB
:1014B000D02981E08093D22901C080E08093D32994
:1014C00060E070E0CB0108951092D329089544EFB5
:1014D00051E060E070E08CE798E20C94242D0F93CB
:1014E0001F93CF93DF93CDB7DEB72E97CDBFDEBF6F
:1014F00081E08E831F8289E890E39F938F938CEE27
:1015000099EE9F938F930DE110E31F930F930E9429
:1015100092500A871B87F80101900020E9F7319764
:10152000ED51F043E887F9871C86009381301093D2
:10153000823083E89BE4809383309093843081E809
:1015400090E30E945127CE0101960E940B220F903A
:101550000F900F900F900F900F908111109286288E
:101560002E96CDBFDEBFDF91CF911F910F910895D1
:101570008F929F92AF92BF92CF92DF92EF92FF92A3
:101580000F931F93CF93DF93CDB7DEB76497CDBF93
:10159000DEBF0E945D1F8C018091D329811117C08D
:1015A0008091D12981112AC0FF24F394F092D1298E
:1015B00082E798E20E94F42C40ED57E060E070E092
:1015C00088E698E20E94242DF092D02917C08091DD
:1015D000D229811113C00E94EE20833079F08091CE
:1015E000D02981110BC040E157E260E070E082E752
:1015F00098E20E94242D81E08093D2298091AC3121
:1016000081FD0BC084608093AC310E94EE2083305A
:1016100009F067C10E94EB2064C1D8015096ED919A
:10162000FC9151978081082E000C990B0E94360680
:10163000F82E0E94C6204B015C0180E090E00E94E1
:101640006701672B682B692BC9F00E94EE2083305D
:10165000A9F48091642890916528A0916628B091A2
:10166000672888169906AA06BB0641F0809264286E
:1016700090926528A0926628B0926728B1E0BF15C5
:1016800028F4E3E0FE1609F479C026C10E94331F56
:101690008091853090918630A0918730B0918830CC
:1016A000892B8A2B8B2B09F41CC182E090E0898363
:1016B0009A838BEB91E00E9432068B839C8380910E
:1016C000853090918630A0918730B09188308D839D
:1016D0009E83AF83B8870E945D1F8C01DC0150960A
:1016E000ED91FC9151978081082E000C990B0E947E
:1016F000360681111CC0F801E088F18841E050E015
:1017000061E070E082E090E00E945905D7018C937F
:10171000D8015096ED91FC915197808187FD07C0CB
:101720000E943205009719F021E0FC012483D801C2
:101730005096ED91FC9151978081082E000C990BE9
:101740000E943606813009F0CCC0D8015096ED9148
:10175000FC915197808140E150E0BE016F5F7F4F67
:10176000082E000C990B0E947B05882309F4B9C050
:101770008091AC3184608093AC31A2C00E94EE2095
:10178000811157C080E090E00E9467016B017C01ED
:10179000672B682B692B09F448C08E010F5F1F4F20
:1017A000C8010E948E071F930F938FEF99EE9F93AE
:1017B0008F9309E810E31F930F930E9492501F9399
:1017C0000F9388E49AEE9F938F9380E59AEE9F9310
:1017D0008F938CE59AEE9F938F9383E09AEE9F937D
:1017E0008F9387EB9FE29F938F930E9492501F935A
:1017F0000F9385E39AEE9F938F9389EC9DE29F93DD
:101800008F930E949250A701960120583C4B424969
:10181000574C0CE51AEE68EC71E08FEE9DE20E94E9
:10182000D0060E940108CDBFDEBF81E080938628EC
:1018300058C0C8010E94DD24C8010E948A220E946B
:101840005D1FDC011C96CD90DC901D970E945D1FF2
:10185000FC01E084F1840E945D1FDC015096ED9153
:10186000FC915197808120E030E0A601B701082E5D
:10187000000C990B0E94DC050E94EE20833089F554
:101880008091AC318B7F8093AC3182E798E20E94EB
:10189000F42C88E698E20E94F42C1092D129109240
:1018A000D2298091862881110E946F0A0E94C62049
:1018B00061317E4081059105A4F0C8010E944A2251
:1018C000D8015096ED91FC9151978081082E000C23
:1018D000990B0E94140605C08091AC3184608093FE
:1018E000AC3164EF71E080E090E06496CDBFDEBF84
:1018F000DF91CF911F910F91FF90EF90DF90CF90EC
:10190000BF90AF909F908F9008950E94EE2091E03D
:10191000833009F090E0892F08950C94E3078FE15C
:10192000E1EBF0E3DF01982F1D929A95E9F7E0EDE6
:10193000F0E3DF011D928A95E9F71092EF301092E3
:10194000F03008958091D4299091D5290E940A1CE5
:10195000811104C01092D4291092D52908950F93B3
:101960001F93CF93DF93EC018091D4299091D529D7
:10197000892B11F00E94A20C88E091E38093F13052
:101980009093F23085EF90E38093F3309093F430AE
:1019900061EF70E3CE010E94D91B811125C081EF58
:1019A00090E38093D4299093D52989818330D9F409
:1019B0002091F1303091F2302F5F3F4F01E010E085
:1019C00043E150E060E070E080E00E94270E81116A
:1019D0000BC0E091D429F091D5290190F081E02D40
:1019E0008181887F818380E0DF91CF911F910F916A
:1019F0000895CF93DF930097D1F0EC010E94021C71
:101A0000892B11F481EE14C0CE010E94061C892B93
:101A1000C9F38091D4299091D529892B11F00E9486
:101A2000A20CC093D429D093D52980E001C082EEC6
:101A3000DF91CF9108950F931F93F801309719F11B
:101A40008370833001F110821182922F977050E0E1
:101A5000292F30E0823041F063E0440F551F6A9532
:101A6000E1F7242B352B0BC0542F4427242B352B87
:101A700093E0660F771F9A95E1F7262B372B20838B
:101A8000318380E001C082EE1F910F910895FA0129
:101A90003097E1F1A091D429B091D52912960D90FB
:101AA000BC91A02D11960D90BC91A02D11969C91EA
:101AB00091110BC0813091F028F0823039F580E22D
:101AC00090E01AC088E590E017C0813039F018F036
:101AD000823039F01BC080E890E00EC080E490E0D6
:101AE0000BC06830710518F484E290E005C06830DE
:101AF000710531F480EA91E08083918380E008955C
:101B00006031710518F488E490E0F6CF82EE089514
:101B1000AF92BF92CF92DF92EF92FF920F931F93FB
:101B2000CF93DF93CDB7DEB7C95CD109CDBFDEBFA0
:101B3000F82E6801012B09F43FC084E0E81619F083
:101B400080E2E81239C0E091D429F091D529A08033
:101B5000B1808E0108531F4F8F2D0E941B0D8111E4
:101B60002CC080E2E81203C08F2D8068F82EFC8222
:101B7000C853DF4F88819981C85CD0408D839E8394
:101B8000BE016F5F7F4FC5010E945A1D811115C0B4
:101B90006091D4297091D529CE0101960E94611CD3
:101BA00081110BC04E2D50E0BE01685F7F4FC60112
:101BB0000E94A14F80E001C082EEC753DF4FCDBF2E
:101BC000DEBFDF91CF911F910F91FF90EF90DF90DB
:101BD000CF90BF90AF900895CF92DF92EF920F9386
:101BE0001F93CF93DF93CDB7DEB7A097CDBFDEBFF6
:101BF000009709F16C0180E2E82E8E010F5F1F4F04
:101C000020E040E060E070E080E00E94880D8111FB
:101C100013C084E0F801D60101900D928A95E1F796
:101C2000D601149685E0FE01399601900D928A95B1
:101C3000E1F780E001C082EEA096CDBFDEBFDF916C
:101C4000CF911F910F91EF90DF90CF9008952F9239
:101C50003F924F925F926F927F928F929F92AF923C
:101C6000BF92CF92DF92EF92FF920F931F93CF9389
:101C7000DF93CDB7DEB7A597CDBFDEBF19A21AA2FD
:101C8000833010F082EE93C0823019F46031710518
:101C9000C8F70115110511F480E089C0211531053F
:101CA00089F328012CA33DA35A011B01F82EAE0194
:101CB0004F5D5F4F0E94470D811179C029A13AA164
:101CC000C8018A0D9B1D28173907E0F2350165E030
:101CD000769467946A95E1F720E22BA3C12CD12C6E
:101CE000812C912C84149504B8F68BA18032C1F418
:101CF00089A19AA1930155E0220F331F5A95E1F76C
:101D0000821B930B809760F46401CA0CDB1CD69491
:101D1000C794D694C79497E0C922DD2424E02BA36E
:101D2000EBA08E010F5F1F4F2C2D462DB1018F2D83
:101D30000E94880D81113BC0C30123E0880F991FC9
:101D40002A95E1F78C0D9D1D880F991F880F991F0B
:101D50008A159B0520F4B501681B790B02C060E071
:101D600070E02BA1822F90E0861B970B820108194F
:101D700019098017910708F48C0181E090E08C0F1D
:101D80009D1F680F791FA8018CA19DA1880D991D29
:101D90000E94A14F800E911E9BA1903221F42FEF43
:101DA000621A720A9FCF8FEFC81AD80A9BCFA596E6
:101DB000CDBFDEBFDF91CF911F910F91FF90EF90CC
:101DC000DF90CF90BF90AF909F908F907F906F905B
:101DD0005F904F903F902F900895EF92FF921F9346
:101DE000CF93DF93CDB7DEB7C75CD109CDBFDEBFE0
:101DF0007901E091D429F091D529208131818C831A
:101E00006D837E834115510541F083E0FA01DE01C7
:101E1000179601900D928A95E1F7BE016F5F7F4F93
:101E2000C9010E941E1D182F81111AC06091D4296A
:101E30007091D529CE0101960E94611C182F811145
:101E40000FC0E114F10461F04F81453048F050E0DB
:101E500043505109BE01685F7F4FC7010E94A14FE7
:101E6000812FC953DF4FCDBFDEBFDF91CF911F91CF
:101E7000FF90EF9008959B0140E050E0BC0180E0AE
:101E80000C94ED0E0F931F93CF93DF93CDB7DEB776
:101E9000C75CD109CDBFDEBFFA01A091D429B091B2
:101EA000D5294D915C91982F93708C836D837E839F
:101EB000923010F494E107C0933069F585FF02C0B9
:101EC00090E401C090E2DE01179601900D929A9580
:101ED000E1F78901BE016F5F7F4FCA010E94371D84
:101EE00081111CC06091D4297091D529CE01019631
:101EF0000E94611C811112C00115110571F08F81C2
:101F0000833258F080E2FE013896D80101900D929C
:101F10008A95E1F702C082EE01C080E0C953DF4F2D
:101F2000CDBFDEBFDF91CF911F910F910895807CCF
:101F30004032510511F4836004C04034510541F42E
:101F4000836220E030E0AB0160E070E00C94420F6F
:101F500082EE08950F931F93CF93DF93CDB7DEB733
:101F6000C75CD109CDBFDEBF4115510549F18A01DA
:101F7000E091D429F091D529208131818C836D8322
:101F80007E83BE016F5F7F4FC9010E94641D811176
:101F90001AC06091D4297091D529CE0101960E9472
:101FA000611C811110C04F81453060F050E04350FA
:101FB0005109BE01685F7F4FC8010E94A14F02C056
:101FC00082EE01C080E0C953DF4FCDBFDEBFDF919D
:101FD000CF911F910F910895CF92DF92EF92FF92D0
:101FE0000F931F93CF938C016B017A0180E090E0F7
:101FF0000E94E311811123C0E091D429F091D529E9
:102000000190F081E02D8081833019F4C0E280E4FA
:1020100002C0C0E080E040E250E0B6010E94970FAD
:1020200081110DC0A701B8018C2F8068CF911F913D
:102030000F91FF90EF90DF90CF900C94AA0FCF916B
:102040001F910F91FF90EF90DF90CF900895FB01CB
:102050008A3110F48F5B089596EE980F9A3110F440
:10206000895B08959CEC980F9A3010F48450089581
:102070008E3311F4808108958F3311F48181089596
:10208000803411F4828108958FEF08952F923F924A
:102090004F925F926F927F928F929F92AF92BF9278
:1020A000CF92DF92EF92FF920F931F93CF93DF9324
:1020B000CDB7DEB72897CDBFDEBF7C016B014F8364
:1020C00058872B833C83452B39F0892B29F0232B10
:1020D00019F00115110531F41F9282EE8F9381EDF5
:1020E0009AEE23C0CB0163E070E00E94E14E21E054
:1020F00030E0892B11F420E030E0C60163E070E0AD
:102100000E94E14E260F371F220F331F220F331F6D
:10211000D80113966C916623D1F0862F837079F0E5
:102120001F9282EE8F938AE59BEE9F938F930E947E
:102130001C500F900F900F900F9082EEEDC070E04A
:10214000C9010E94E14E660F771F260F371F2F5FD0
:102150003F4FEB81FC81808191818217930778F456
:102160001F928DEE8F9385E99BEE9F938F930E9434
:102170001C500F900F900F900F908DEECDC0AB8143
:10218000BC811D921C92212C312C612C712C812C34
:10219000912CEF81F885E60DF71D8C149D0408F055
:1021A000ACC0D80113966C916623D9F081149104C8
:1021B000C1F070E0C301821993090E94E14E892B9E
:1021C00081F4BDE0B083F30131962F813885E20FB1
:1021D000F31F32E0630E711C4AE0408352E0250E8B
:1021E000311C8F819885860D971D89839A83D7012D
:1021F0008C91B801869586950E942710E981FA8115
:102200008083D7018C9183708295807F93012F5FAB
:102210003F4FEF81F885E20FF31FED83FE832E5FC2
:102220003F4F2901A3014C5F5F4F5A0194012F5F7B
:102230003F4F2C153D05F0F552E0650E711C1196CF
:102240009C9192959F70B801892B0E942710AD81B7
:10225000BE818C93F70181818F70880F880F2F8149
:102260003885620E731E94012E5F3F4F2C153D057D
:10227000C8F492819295969596959370B801892BA2
:102280000E942710D3018C933501AF80B884A40C31
:10229000B51CF7018281B8018F730E942710D50108
:1022A0008C931DC0B8010E942710F3018083350173
:1022B000D8010EC0B8010E942710ED81FE818083F5
:1022C000D80112968C911297E981FA8182833501A7
:1022D00012968C91EF81F885E40DF51D8083F3E073
:1022E0008F0E911C23E0E20EF11C53CF930121507D
:1022F00031098291811105C0390132E06316710400
:10230000A8F74F815885460D571DDA011C92EB81C5
:10231000FC816082718280E02896CDBFDEBFDF91B4
:10232000CF911F910F91FF90EF90DF90CF90BF90D2
:10233000AF909F908F907F906F905F904F903F9065
:102340002F9008950F931F930BE818E20E944610F8
:102350001F910F9108950F931F93CF93DF93CDB7E4
:10236000DEB7C75CD109CDBFDEBFE091D429F091C3
:10237000D529208131818E010F5F1F4F97ECF80125
:1023800011929A95E9F78C836D837E83B801C90118
:102390000E942D1D811107C06091D4297091D5290B
:1023A000C8010E94611CC953DF4FCDBFDEBFDF9162
:1023B000CF911F910F910895880F880F60E070E012
:1023C00082600C94AB110F931F93CF93DF93CDB723
:1023D000DEB7C75CD109CDBFDEBF8C01E091D42947
:1023E000F091D529808191811C821D821E82BE01BF
:1023F0006F5F7F4F0E94501D81111AC06091D429D8
:102400007091D529CE0101960E94611C811110C0E6
:102410009F81933261F40115110551F090E2FE01A4
:102420003896D80101900D929A95E1F701C086EE99
:10243000C953DF4FCDBFDEBFDF91CF911F910F9109
:1024400008952F923F924F925F926F927F928F9258
:102450009F92AF92BF92CF92DF92EF92FF920F9333
:102460001F93CF93DF93CDB7DEB7C455D140CDBF17
:10247000DEBFC55BDE4F88839983CB54D140C15BFF
:10248000DE4F288339834A835B83CF54D140CB5CB2
:10249000DE4F6883C553D140CA5CDE4F7883C65394
:1024A000D140CF5BDE4F188219821A821B82C15441
:1024B000D1409E012F5B3F4FCF5DDE4F2883398394
:1024C000C152D140AE014F535F4FCD5DDE4F4883C7
:1024D0005983C352D14088559F4FC35BDE4F8883D9
:1024E0009983CD54D140CF5BDE4F688179818A8159
:1024F0009B81C154D140C15BDE4F488059806A80C6
:102500007B80CF54D140641575058605970509F485
:10251000CCC3BE016F5F7F4FC95CDE4F6883798398
:10252000C753D140FB01CB5CDE4FA881B981C553B5
:10253000D1408C91838311968C911197828312964E
:102540008C911297818313968C91139780831496A4
:102550003496CF5DDE4F88819981C152D140E81712
:10256000F90739F7C95CDE4F28803980C753D1405D
:102570003101D10114964D915D916D917C91179728
:10258000D8968D919D910D90BC91A02DE4E02E0EDA
:10259000311C6A017B0117E0F694E794D794C79445
:1025A0001A95D1F78A019B01E9E1000F111F221F43
:1025B000331FEA95D1F7C02AD12AE22AF32A4A0129
:1025C0005B01FEE0880C991CAA1CBB1CFA95D1F794
:1025D0008A019B01E2E13695279517950795EA95C3
:1025E000D1F7082919292A293B290C251D252E2533
:1025F0003F256A017B01F3E0F694E794D794C794F2
:10260000FA95D1F70C251D252E253F25F301C08015
:10261000D180E280F380F10140A151A162A173A1B8
:10262000C40ED51EE61EF71EC00ED11EE21EF31EFE
:102630008C019D014FE0000F111F221F331F4A958F
:10264000D1F7AC01BD01E1E17695679557954795C6
:10265000EA95D1F7042B152B262B372BAC01BD01A6
:10266000FDE0440F551F661F771FFA95D1F72C0127
:102670003D01E3E17694679457944794EA95D1F746
:10268000442A552A662A772A40265126622673262E
:10269000FAE0B695A79597958795FA95D1F74826CC
:1026A00059266A267B264C0C5D1C6E1C7F1CD101B2
:1026B000DC964D925D926D927C92DF97CD5DDE4F00
:1026C000E881F981C352D1402E163F0609F050CF60
:1026D000C55BDE4F28803980CB54D140F8E82F0EFF
:1026E000311C9E012F5F3E4FCD5ADE4F2883398328
:1026F000C355D140C901F10141915191619171914D
:10270000DC014D935D936D937D93CD01C35BDE4FF3
:1027100048805980CD54D140E415F50569F7CD5A6C
:10272000DE4FA881B981C355D1405C966D907D90F4
:102730008D909C905F97C95BDE4F688279828A8218
:102740009B82C754D14058964D905D906D907C907F
:102750005B97C35CDE4F488259826A827B82CD538D
:10276000D14054964D905D906D907C905797C75C8A
:10277000DE4F488259826A827B82C953D14050968B
:102780008D919D910D90BC91A02DCD5ADE4FE88189
:10279000F981C355D1404484558466847784CB5DE8
:1027A000DE4F488259826A827B82C552D140408482
:1027B000518462847384CF5CDE4F488259826A827E
:1027C0007B82C153D1404480558066807780C35D51
:1027D000DE4F488259826A827B82CD52D14000818D
:1027E0001181228133814CEC5BEECB5BDE4F488361
:1027F0005983C554D140CB5BDE4FE881F981C55484
:10280000D1404191519161917191CB5BDE4FE88351
:10281000F983C554D1404C015D01EAE1880C991C53
:10282000AA1CBB1CEA95D1F76C017D01F6E0F69479
:10283000E794D794C794FA95D1F7C828D928EA28FD
:10284000FB282C013D01E5E1440C551C661C771C5E
:10285000EA95D1F74C015D01FBE0B694A7949794FB
:102860008794FA95D1F784289528A628B7288C2430
:102870009D24AE24BF246C017D01E9E1F694E79428
:10288000D794C794EA95D1F72C013D01F7E0440CA9
:10289000551C661C771CFA95D1F7C428D528E62864
:1028A000F728C824D924EA24FB24C95CDE4FE88138
:1028B000F981C753D14081909190A190B190C95CAA
:1028C000DE4FE883F983C753D140480D591D6A1D77
:1028D0007B1D4C0D5D1D6E1D7F1D2C013D01409427
:1028E000509460947094C35CDE4F88809980AA8075
:1028F000BB80CD53D140482059206A207B20C75C43
:10290000DE4FC880D980EA80FB80C953D140C822FD
:10291000D922EA22FB22C424D524E624F7244C0D34
:102920005D1D6E1D7F1DC95BDE4FA880B980CA800A
:10293000DB80C754D1404A0D5B1D6C1D7D1DCB5DF6
:10294000DE4FC880D980EA80FB80C552D140C40EDA
:10295000D51EE61EF71EC75DDE4FC882D982EA8209
:10296000FB82C952D14048015901EEE1880C991C03
:10297000AA1CBB1CEA95D1F768017901F2E0F69434
:10298000E794D794C794FA95D1F7C828D928EA28AC
:10299000FB2828013901E3E1440C551C661C771C17
:1029A000EA95D1F748015901FDE0B694A7949794B0
:1029B0008794FA95D1F7482859286A287B28C42497
:1029C000D524E624F72428013901E6E176946794BA
:1029D00057944794EA95D1F748015901FAE0880CD9
:1029E000991CAA1CBB1CFA95D1F784289528A62807
:1029F000B728240135014C245D246E247F24CB5D4F
:102A0000DE4F488259826A827B82C552D140C35DC3
:102A1000DE4F488059806A807B80CD52D140CF5CA8
:102A2000DE4F88809980AA80BB80C153D140482462
:102A300059246A247B244022512262227322C35DDE
:102A4000DE4FC880D980EA80FB80CD52D140C820BB
:102A5000D920EA20FB20C424D524E624F724CB5D2A
:102A6000DE4F488059806A807B80C552D140C40CBB
:102A7000D51CE61CF71CC40ED51EE61EF71EC35C53
:102A8000DE4F688079808A809B80CD53D140C95BBE
:102A9000DE4F688279828A829B82C754D140CF5CA4
:102AA000DE4F88809980AA80BB80C153D140CB5D26
:102AB000DE4F88829982AA82BB82C552D140CB5B0D
:102AC000DE4F48815981C554D1404C5C5C4ED9F1F0
:102AD000C75CDE4F488059806A807B80C953D140F3
:102AE000C35CDE4F488259826A827B82CD53D140DB
:102AF000C75CDE4F88839983AA83BB83C953D140C7
:102B0000C75DDE4F88819981AA81BB81C952D140BE
:102B1000C35DDE4F688079808A809B80CD52D14032
:102B2000CF5CDE4F688279828A829B82C153D1401A
:102B3000C35DDE4F088319832A833B83CD52D14086
:102B40009701860158CECF5FDE4FC882D982EA82D4
:102B5000FB82C150D140CB5FDE4F088319832A83AB
:102B60003B83C550D140C35DDE4F488059806A80A9
:102B70007B80CD52D140C75FDE4F488259826A8246
:102B80007B82C950D140C75DDE4F688079808A80E2
:102B90009B80C952D140CF5EDE4F688279828A82A3
:102BA0009B82C151D140CB5EDE4F88839983AA833B
:102BB000BB83C551D140C75CDE4F88809980AA8015
:102BC000BB80C953D140C75EDE4F88829982AA82FA
:102BD000BB82C951D140C35CDE4FA880B980CA8096
:102BE000DB80CD53D140C35EDE4FA882B982CA825A
:102BF000DB82CD51D140CF5CDE4FC880D980EA80E6
:102C0000FB80C153D140C35FDE4FC882D982EA82C4
:102C1000FB82CD50D140CD5ADE4FE881F981C355BA
:102C2000D14081919191A191B191CD5ADE4FE8832C
:102C3000F983C355D140F101408151816281738193
:102C4000840F951FA61FB71F81939193A193B193F2
:102C50001F01C35BDE4F48805980CD54D1404E16D2
:102C60005F06C9F6CF5BDE4F288139814A815B81DF
:102C7000C154D1402F5F3F4F4F4F5F4FCF5BDE4F6F
:102C8000288339834A835B83C154D140CB5CDE4FB8
:102C900048815981C553D140405C5F4FCB5CDE4FCA
:102CA00048835983C553D1401ECCCC5ADE4FCDBF8B
:102CB000DEBFDF91CF911F910F91FF90EF90DF90DA
:102CC000CF90BF90AF909F908F907F906F905F90CC
:102CD0004F903F902F90089528EAFC0111922A9579
:102CE000E9F7ACECBCEEFC01E857FF4F88559F4F6D
:102CF0004D915D916D917D9141935193619371934C
:102D0000E817F907A9F708952F923F924F925F9223
:102D10006F927F928F929F92AF92BF92CF92DF92EB
:102D2000EF92FF920F931F93CF93DF93EC018B01F0
:102D300049015A018C819D81AE81BF8140E4C42E3E
:102D4000D12CE12CF12CC81AD90AEA0AFB0A8C14FE
:102D50009D04AE04BF0410F4750164010896A60139
:102D6000B8018C0F9D1F0E94A14F8C819D81AE8167
:102D7000BF81880D991DAA1DBB1D80349105A10539
:102D8000B105B8F48C839D83AE83BF83DF91CF916F
:102D90001F910F91FF90EF90DF90CF90BF90AF9079
:102DA0009F908F907F906F905F904F903F902F906B
:102DB00008951E0188E0280E311C21E030E040E03B
:102DC00050E0B101CE010E9421128C189D08AE087E
:102DD000BF082401350186E07694679457944794A0
:102DE0008A95D1F7B8016C0D7D1DA3019201CE012A
:102DF0000E942112D301C2010196A11DB11D26E03E
:102E0000880F991FAA1FBB1F2A95D1F748815981A6
:102E10006A817B81840F951FA61FB71F88839983C2
:102E2000AA83BB83B501A4014F7355276627772773
:102E30004C835D836E837F8336E0440C551C3A954A
:102E4000E1F7C40CD51CC8018C0D9D1DBC01C1014E
:102E5000DF91CF911F910F91FF90EF90DF90CF9076
:102E6000BF90AF909F908F907F906F905F904F90AA
:102E70003F902F900C94A14F8F929F92AF92BF9250
:102E8000CF92DF92EF92FF920F931F93CF93DF9336
:102E9000EC018B014C815D816E817F81C880D9807E
:102EA000EA80FB80C40ED51EE61EF71EC882D982BA
:102EB000EA82FB8283E0CC0CDD1CEE1CFF1C8A95B1
:102EC000D1F787EF9FEFAFEFBFEF841B950BA60BFA
:102ED000B70B4C015D012FE382229924AA24BB2465
:102EE000DB01CA010196A11DB11D8C839D83AE83B8
:102EF000BF83FE01E40FF51F20E82087A4014C5F8B
:102F00005F4F089660E070E08C0F9D1F0E94BC4FE1
:102F10008C819D81AE81BF81880D991DAA1DBB1D2D
:102F2000AC01BD014C5F5F4F6F4F7F4FFE01E40F5F
:102F3000F51FF086AC01BD014B5F5F4F6F4F7F4FB8
:102F4000FE01E40FF51FE086AC01BD014A5F5F4F53
:102F50006F4F7F4FFE01E40FF51FD086AC01BD011E
:102F6000485F5F4F6F4F7F4F4C835D836E837F83DE
:102F70000796A11DB11DFE01E80FF91FC0869A0139
:102F8000AB0196E056954795379527959A95D1F7D9
:102F9000BE01685F7F4FCE010E942112C801FE0171
:102FA000E857FF4FC855DF4F9C012C5F3F4FD901B9
:102FB00040814E934081518162817381452F562F0C
:102FC000672F77274083518362837383A817B907DC
:102FD00079F73496C901EC17FD0731F7DF91CF91EE
:102FE0001F910F91FF90EF90DF90CF90BF90AF9027
:102FF0009F908F900895CF92DF92EF92FF920F9360
:103000001F93CF93DF93CDB7DEB7C05CD109CDBF9F
:10301000DEBF6C018B017A01CE0101960E946C1615
:10302000980140E050E0B601CE0101960E9484165E
:10303000B701CE0101960E943C1780E090E0C05499
:10304000DF4FCDBFDEBFDF91CF911F910F91FF907A
:10305000EF90DF90CF90089561157105810591057E
:1030600059F0E3ECF9E03197F1F700C0000061504E
:10307000710981099109F0CF08950E94222980E009
:10308000089580E00895CF93DF931F92CDB7DEB708
:10309000898389810E942A298823D9F360E070E01E
:1030A0008EE29AE20E94182961E070E0CE0101965A
:1030B0000E94A82980E00E94BA290E9483298130B9
:1030C000E1F30F90DF91CF91089580E00895FF9292
:1030D0000F931F93CF93DF93F82EEB018A018F2D6F
:1030E0000E942A298823D9F3B801CE010E94A82979
:1030F00060E070E080E39AE20E941D2980E00E9477
:10310000BA290E9483298130E1F3DF91CF911F9189
:103110000F91FF90089583E0FB0180834F5F5F4F25
:1031200088E50E94671880E00895CF93DF931F928F
:10313000CDB7DEB782E0898341E050E0BE016F5F2A
:103140007F4F88E50E94671880E00F90DF91CF9154
:103150000895CF93DF931F92CDB7DEB781E08983C7
:1031600041E050E0BE016F5F7F4F88E50E94671825
:1031700080E00F90DF91CF910895FF920F931F93FE
:10318000CF93DF93F82EEB018A018F2D0E942A291D
:103190008823D9F3B801CE010E94A82981E00E94BA
:1031A000BA290E9483298130E1F3DF91CF911F91E9
:1031B0000F91FF900895FA014081518188E50E94A6
:1031C000BD1880E00895CF93DF93CDB7DEB7289781
:1031D000CDBFDEBF41E060E070E080E00E944318B8
:1031E00087E893E10197F1F700C00000809160E764
:1031F000909161E7A09162E7B09163E789839A8338
:10320000AB83BC8344E050E0BE016B5F7F4F88E539
:103210000E94BD18FE013596DE0111969E01275FC2
:103220003F4F81E041919D91491380E0E217F30700
:10323000C9F7811102C080EF01C080E02896CDBFA0
:10324000DEBFDF91CF910895FB01DC018C918111EC
:1032500024C08DE398E18083918381E498E18283A7
:1032600093838BED98E1868397838BE898E1848341
:10327000958389EA98E18487958783EE98E1808732
:10328000918785E998E18287938785E698E186872B
:103290009787108A118A80E0089580EF0895811140
:1032A00003C0CB010C94651881EE0895CF93DF9392
:1032B000DC01892B69F1ED91FC911197309741F177
:1032C00014962D913C9115972115310509F112960F
:1032D0008D919C911397019728173907C8F4E20F35
:1032E000F31FEF01219788818E3241F42F5F3F4F0A
:1032F00014962D933C9315978BE709C08B3741F0BB
:103300002F5F3F4F14962D933C9315978CE280834B
:10331000DF91CF910895EF92FF920F931F93CF9378
:10332000DF9300D0CDB7DEB70097E1F161157105ED
:10333000C9F141155105B1F19A01AB017C01FC01C4
:1033400060837183228333831482158229833A83B5
:1033500007E818E29E012F5F3F4F6BE170E08FEFAF
:103360009CEE0E944610811120C0F70144815581D6
:1033700029813A81240F351F24833583428153816B
:10338000415051092417350778F440815181B90122
:103390006F5F7F4F64837583FA01E20FF31F9EE234
:1033A000908303C082EE01C084EE0F900F90DF91F6
:1033B000CF911F910F91FF90EF9008958F929F9260
:1033C000AF92BF92CF92DF92EF92FF920F931F9333
:1033D000CF93DF9300D0CDB7DEB7FC015B01892B23
:1033E00009F4EEC0A081B181109709F4E9C082818F
:1033F0009381892B09F4E4C084819581009709F4B5
:10340000DFC0AD01480F591F9A0121503109D90180
:103410002C912D3731F00196848395838DE7DA0165
:103420008C932481358160E070E06217730759F056
:10343000A081B181A60FB71F8C916F5F7F4F8E3235
:10344000A1F76B0101C0690149018C189D08C401F5
:10345000805C9F4F880F991F880F991F63E070E071
:103460000E94E14E82819381821B930B6D5F7F4F9F
:103470008617970710F484EEA4C07F012081318164
:10348000B9016C0D7D1DA401820F931F0E94AA4FEC
:10349000F7012281338129833A830190F081E02D65
:1034A000AF014C0D5D1DD70114968D919C91159720
:1034B000B901681B790BCB0107E818E29E012F5F69
:1034C0003F4FB4018E0F9F1F0E944610811179C09B
:1034D00069817A816C0D7D1DD70114966D937C9363
:1034E000159712964D915C911397CA0188559109D1
:1034F0006817790708F0BFCF8D919C914052510910
:10350000480F591F0E94FB1781115BC0F7016081B2
:10351000718182819381AC0140545109460F571F3C
:103520008097680F791FC5010E94EC0F811149C077
:10353000D7012D913C91119714968D919C911597DF
:10354000AC014F5F5F4F14964D935C931597F90153
:10355000E80FF91F2EE2208312962D913C911397CC
:1035600014964D915C911597C901841B950B898325
:103570009A83ED91FC914E0F5F1FC9018054910910
:103580009E012F5F3F4F60E470E08E0F9F1F0E94EF
:103590004610F7012481358189819A81820F931F1A
:1035A00084839583228133818217930708F063CF48
:1035B00020813181F901E80FF91F108280E001C0FC
:1035C00082EE0F900F90DF91CF911F910F91FF909E
:1035D000EF90DF90CF90BF90AF909F908F90089525
:1035E000CF92DF92EF92FF920F931F93CF93DF93CF
:1035F000EC01892B09F44FC088819981892B09F44A
:103600004AC08A819B81892B09F445C061157105E7
:1036100009F441C041155105F1F16A017B01CE0168
:103620000E9456198C819D814A815B818A01081B09
:10363000190BDF92CF92FF92EF922CEE3CEE3F936C
:103640002F931F930F9328813981820F931F9F938C
:103650008F930E9462506C01092E000CEE08FF0847
:103660002DB73EB7265F3F4F2DBF3EBF1C141D0434
:103670001E041F0494F4A80160E070E0C416D5068F
:10368000E606F70654F42C813D81820F931F8C834C
:103690009D8380E003C082EE01C081EEDF91CF9177
:1036A0001F910F91FF90EF90DF90CF900895AF9210
:1036B000BF92CF92DF92EF92FF920F931F93CF931F
:1036C000DF93EC01892B09F451C088819981892B02
:1036D00009F44CC08A819B81892B09F447C061158C
:1036E000710509F443C0A52EB42EC32ED22E7B0142
:1036F000CE010E9456198C819D814A815B818A018D
:10370000081B190BAF92BF92CF92DF92FF92EF92FC
:1037100026EF3CEE3F932F931F930F93288139811F
:10372000820F931F9F938F930E9462506C01092E0A
:10373000000CEE08FF082DB73EB7245F3F4F2DBFAA
:103740003EBF1C141D041E041F0494F4A80160E075
:1037500070E0C416D506E606F70654F42C813D81C8
:10376000820F931F8C839D8380E003C082EE01C093
:1037700081EEDF91CF911F910F91FF90EF90DF903D
:10378000CF90BF90AF900895CF930E94EC0DC82FBB
:10379000882361F01F928F938BE19DEE9F938F930F
:1037A0000E941C500F900F900F900F908C2FCF9174
:1037B00008950F931F93CF93DF93FB010097E1F0E0
:1037C0003097D1F06081718161157105A9F0228176
:1037D0003381232B89F0EF018C01FC0181810E9450
:1037E000DB1C81110AC06A817B81C801DF91CF9106
:1037F0001F910F910C94651E82EEDF91CF911F9166
:103800000F910895FC01808191810895FC018281CE
:1038100093810895009729F0FC01828193810C9493
:10382000FB1D82EE0895CF93DF93FB0190819130D1
:1038300031F0D0F0923039F0933049F011C093E17B
:103840002FE332EF1CC094E123E032EF18C09181E6
:10385000983271F0983681F096E121EC31EF0FC08B
:1038600090E020E030E00BC09EE028E732EF07C098
:1038700096E12FE731EF03C096E12DE331EF4FEFF3
:103880005FEF4283538340E0491789F0D9012D5FF0
:103890003F4FE90123975881581307C011968D9126
:1038A0009C9112978283938302C04F5FEDCF8281F8
:1038B0009381019611F482EF01C080E0DF91CF91F6
:1038C0000895AF92BF92CF92DF92EF92FF921F9333
:1038D000CF93DF9300D0CDB7DEB77C016B01DB0166
:1038E0006D917C91FC0182810E94131C811157C053
:1038F000D601ED91FC911197A280B38012968D9123
:103900009C9113970E94D31D182F811142C0F7017B
:10391000418150E0B701D60112968D919C91139789
:103920000E94C71D182F811134C0B50180E090E0BE
:103930000E942C18B6E0EB0EF11C80ECF7011192FE
:103940008A95E9F780EC90E089839A83AE014F5F16
:103950005F4FB701D60112968D919C9113970E94EB
:10396000CD1D182F811115C089819A818430910550
:1039700020F4892B69F417EE0CC0C7010E946E1D5C
:10398000182F811106C0C7010E949B1D182F01C06E
:1039900016EEF601828193810E94EA1D812F0F901D
:1039A0000F90DF91CF911F91FF90EF90DF90CF901C
:1039B000BF90AF9008956115710529F0FB018083D8
:1039C000118280E0089582EE08950F931F93CF93A4
:1039D000DA01FB018B01080F191F20E030E00E1700
:1039E0001F07C9F0C19168E070E091E0832F881F44
:1039F0008827881F220F331F41E05C2F592309F4C9
:103A000040E0481719F085E028273058990F615099
:103A1000710961F7E4CF2C9311963C93CF911F91DC
:103A20000F910895BC016F5F7F4FFC01818182502F
:103A300090E0AB01480F591F0C94E51CFB0180E49A
:103A40008283838184FF02C08AE001C087E0818392
:103A5000CF010E94121D80E00895CB0127E1FB01F8
:103A6000228327E021830E94121D80E00895FB013C
:103A70008381982F937026E12283923010F48BE19A
:103A800007C0933059F485FF02C087E401C087E284
:103A90008183CF010E94121D80E0089582EE089577
:103AA000CB012BE1FB01228327E021830E94121D21
:103AB00080E00895CB0122E0FB01228327E02183EF
:103AC0000E94121D80E00895CB0121E4FB012283B6
:103AD00027E021830E94121D80E00895EF92FF925B
:103AE0000F931F93CF93DF9300D0CDB7DEB77C0148
:103AF000FC0180818250082F10E0AE014F5F5F4FC4
:103B0000B701C8010E94E51CF701E00FF11F998180
:103B10008081981306C09A818181981302C080E049
:103B200001C085EE0F900F90DF91CF911F910F9103
:103B3000FF90EF900895FC012081243031F58181C0
:103B40008730D9F048F48130A1F0F8F0833099F053
:103B50008530C9F486ED08958F3089F020F48830DF
:103B600091F48AEF0895813161F08F3F61F484ED23
:103B7000089581ED089582ED089587ED089584EF0D
:103B8000089583EF089581EE089580E00895DC01A3
:103B90001796ED91FC9118970994DC011996ED9117
:103BA000FC911A970994CF93DF93EC01EB85FC8588
:103BB0000995803D61F469E170E080E090E00E9449
:103BC0002C18EB85FC85CE01DF91CF910994DF9114
:103BD000CF910895CF93DC011D96ED91FC911E9736
:103BE0000995C82F61E070E080E090E00E942C18F9
:103BF0008C2FCF910895009731F0FC016189728973
:103C000080810C944F1982EE08950F931F93CF93E8
:103C1000DF93EC018B0189819A810E942419F801BC
:103C2000808191818B839C83828193818D839E830C
:103C3000848195818F8398878681978189879A87E8
:103C4000808591858B879C87848595858F87988BC8
:103C5000828593858D879E8780899189898B9A8BB0
:103C600080E0DF91CF911F910F9108950F931F93E3
:103C7000CF93DF93CDB7DEB76297CDBFDEBF8C01A8
:103C8000BE016F5F7F4F0E94051ED80111966D9196
:103C90007C9112971396ED91FC911497CE010196A9
:103CA000099581110AC089899A89F801818B928BC3
:103CB0000580F681E02DC80109956296CDBFDEBF73
:103CC000DF91CF911F910F910895009761F06115D9
:103CD000710549F0FC012081FB01208381839283DF
:103CE000CB010C94361E82EE089561E070E00E94D4
:103CF000A82960E070E080E090E00E94182984E04C
:103D0000089561E070E00E94A82960E070E080E022
:103D100090E00E94182982E0089562E070E00E941D
:103D2000A82960E070E080E090E00E94182982E01D
:103D300008951F93CF93DF9300D0CDB7DEB7182F30
:103D400069834A83812F0E942A298823D9F3BE01DF
:103D50006E5F7F4F85E79EE10E94182961E070E069
:103D6000CE0101960E94A82960E070E080E39AE20B
:103D70000E941D290E94CE290E9483298130E1F3EF
:103D80000F900F90DF91CF911F910895FF920F93A5
:103D90001F93CF93DF9300D0CDB7DEB7F82E6A83A1
:103DA0008AE2898302E010E08F2D0E942A2988236D
:103DB000D9F3BE016F5F7F4F81E89EE10E94182911
:103DC00061E070E0CE0102960E94A82960E070E0F8
:103DD00080E39AE20E941D290E94CE290E94832935
:103DE0008130E1F3882319F001501109E9F6898146
:103DF0000F900F90DF91CF911F910F91FF90089539
:103E00001F93CF93DF9300D01F92CDB7DEB7182F4B
:103E10006B83812F0E942A298823D9F3BE016F5F0B
:103E20007F4F8DE89EE10E94182961E070E0CE018D
:103E300003960E94A82960E070E080E39AE20E9465
:103E40001D290E94CE290E9483298130E1F38981B6
:103E50009A819827892798272396CDBFDEBFDF91C7
:103E6000CF911F910895CF93DF930E94EB20CAE377
:103E7000DAE218821982A6EDB9E21D921C9211971E
:103E8000EAECFBE2C083D18380E991E084839583EF
:103E9000C283D38316821782A087B18784E690E01D
:103EA00084879587A287B387168617868FE898E25E
:103EB000808B918BDF91CF9108958AEC9BE20895DE
:103EC000FC0146815781608171810088F189E02D74
:103ED000808120E030E0082E000C990B0E943F0604
:103EE00021E0181619060CF020E0822F0895DC015D
:103EF0005096ED91FC9151978081082E000C990B02
:103F00000E94140621E0892B09F020E0822F0895F9
:103F10000F931F93CF938C01C62F82ED9BE20E94DB
:103F2000A8264C2F50E0B80182ED9BE2CF911F9163
:103F30000F910C94B02681E08093E52B60E070E057
:103F4000CB01089581E08093E42B20911E2C3091C9
:103F50001F2C32272327322721503109A8EEB3E046
:103F60000E94504F089581E08093E32B60E375E752
:103F700080E090E0089581E08093E22B60E070E0C3
:103F8000CB01089581E08093E12B60E070E0CB01EC
:103F9000089520E0382F3F77880F892F881F990BCD
:103FA0009195009709F03068FB01E20FF11D308315
:103FB0002F5F009779F7822F08953F924F925F927B
:103FC0006F927F928F929F92AF92BF92CF92DF9229
:103FD000EF92FF920F931F93CF93DF93CDB7DEB78E
:103FE000CE53D140CDBFDEBF8E01035D1E4F20E119
:103FF000D8011D922A95E9F7FE01E753FF4FC35CF4
:10400000DE4FE883F983CD53D14024E611922A95FF
:10401000E9F79E012F5F3F4F690128ECD6011D9201
:104020002A95E9F708967C0141E050E0B8010E942A
:104030002127B8016F5F7F4F41E050E0C7010E9428
:104040002127F801828187FF15C041E050E0B801C7
:104050006D5F7F4FC7010E942127D80113968C9175
:1040600087FF08C041E050E0B8016C5F7F4FC70197
:104070000E942127F801412C512C3201812C912CD6
:10408000540183943180A32DAF77B0E0A501940152
:104090000E94664F460E571E681E791E87E0880CE8
:1040A000991CAA1CBB1C8A95D1F737FE02C0319619
:1040B000E9CF42E050E0B8016B5F7F4FC7010E943B
:1040C000212729EC30E02C0F3D1FF8012783308792
:1040D00045815681542745275427B901C7010E94BD
:1040E0002127D80115968D919C911697982789279D
:1040F00098274EEF5FEF6FEF7FEF481B590B610979
:104100007109440D551D661D771D1C96CD92DC92DC
:104110001D97B601C7010E9421270E9456276C01F6
:104120000097D1F0F801A780B084458156815427CB
:1041300045275427B501DC018D919C910E94944F35
:10414000892B51F4F80164857585D6011296ED919D
:10415000FC911397C5010995C7010E94A82683E029
:10416000C25CDE4FCDBFDEBFDF91CF911F910F91BB
:10417000FF90EF90DF90CF90BF90AF909F908F9087
:104180007F906F905F904F903F900895CF92DF9215
:10419000EF92FF92C090DD2BD090DE2BE090DF2BD2
:1041A000F090E02BC114D104E104F10461F080E04F
:1041B00090E00E946701A7019601FF90EF90DF90C9
:1041C000CF900C94FD0060E070E0CB01FF90EF9089
:1041D000DF90CF9008951092DC2B08958091DC2B16
:1041E0000895CF93DF93FC018DE1A1E1BCE2ED01E5
:1041F00019928A95E9F78091112C8F7080618093D4
:10420000112C84E08093172C9DE49093182C91E559
:104210009093192C94E590931A2C90931B2C8093D7
:104220001C2C6789708D6115710521F4838994892F
:10423000892B11F082EC01C082E080931D2C8585D2
:10424000968598278927982780931E2C90931F2C5A
:10425000A189B289A093222CB093232CED0109905F
:104260000020E9F721979E012A1B3B0B2093202C6D
:104270003093212C40911D2C46FF0AC0818D928DD8
:1042800080932A2C90932B2C6093282C7093292CAC
:1042900047FF16C0858996898093262C9093272CFA
:1042A000638974896093242C7093252C8091282C29
:1042B0009091292C860F971F0496820F931F01C09F
:1042C000C9010C9680932C2C90932D2C407CB1F03E
:1042D0008091282C9091292C9827892798278093C2
:1042E000282C9093292C8091242C9091252C982770
:1042F000892798278093242C9093252C32272327D5
:1043000032272093202C3093212C81E080932F2C76
:104310008093DC2BDF91CF910895CF93DF93FC0145
:1043200080E1A1E0BCE2ED0119928A95E9F7809164
:10433000DC2B833009F06BC09091012C9F7090634F
:104340009093012C808183FB882780F980FB93F96F
:104350009093012C80818670997F982B9093012CEB
:10436000892F8E70883019F4977F9093012C90815B
:104370008091012C90FB80F98093012C878190859E
:104380008093082C9093092CA781B085ED010990AA
:104390000020E9F72197CE018A1B9B0B8093062C06
:1043A0009093072C20812695237061F0218520931E
:1043B0000A2C228520930B2C22E030E020930F2C36
:1043C0003093102C2485358520930D2C30930E2CA2
:1043D000438540930C2C20910F2C3091102C2E5F94
:1043E0003F4F240F311D280F391F20930F2C30937E
:1043F000102C9827892798278093062C9093072CB8
:1044000080912F2C846080932F2C81E001C080E06C
:10441000DF91CF910895CF93DF93FC018091DC2B46
:104420008330A1F580912E2C82FD30C08EE0A3EF69
:10443000BBE2ED0119928A95E9F78091F32B89701F
:1044400082688093F32B85818093F82B86818093FB
:10445000F92B87819085382F292F2093FA2B3093C1
:10446000FB2B218532852093FC2B3093FD2B23855C
:104470002093FE2B05968093FF2B9093002C809128
:104480002F2C886080932F2C81E001C080E0DF9189
:10449000CF9108950F931F93CF93DF9300D0CDB7A3
:1044A000DEB72091DC2B2250223058F58C018EEAA9
:1044B00098E20E94F42C19821A82C8010E94A82650
:1044C000C80108960E94A82689818870806E877F1F
:1044D000898341E050E0BE016F5F7F4FC8010E94B9
:1044E000B02641E050E0BE016E5F7F4FC8010E94E0
:1044F000B026C8010E94601F811110922F2C1092CB
:10450000DC2B8091DC2B0F900F90DF91CF911F91CE
:104510000F9108950F931F93CF93DF9300D0CDB7E2
:10452000DEB78C018091DC2B823020F0833009F4DF
:104530008EC03AC280912F2C80FF36C2C8010E94E3
:10454000A826C80108960E94A82641E050E061E133
:104550007CE2C8010E94B02662E17CE280912C2CB2
:1045600090912D2C0E94C91F482F50E062E17CE2FF
:10457000C8010E94B0264AE050E066E17CE2C80132
:104580000E94B02642E050E060E27CE2C8010E9456
:10459000B0266091222C7091232CFB010190002009
:1045A000E9F73197AF01461B570BC8010E94B026AF
:1045B0008091282C9091292C892B31F48091242CE6
:1045C0009091252C892B51F142E050E064E27CE28D
:1045D000C8010E94B0264091242C5091252C5427CC
:1045E000452754276091262C7091272CC8010E94E2
:1045F000B02642E050E068E27CE2C8010E94B026AA
:104600004091282C5091292C5427452754276091FC
:104610002A2C70912B2CC8010E94B026C8010E9440
:10462000601F882309F4C0C180912F2C8E7F809356
:104630002F2C40E355E760E070E088EB98E20E94A1
:10464000242D82E08093DC2B1092E52BADC12091CC
:104650002F2C222309F4A8C180E030E0482FB901B3
:10466000082E02C0759567950A94E2F760FD02C0B6
:104670008F5FF4CF81E090E001C0880F4A95EAF7A0
:10468000883009F4BAC020F4843009F444C08CC1E5
:10469000803109F416C1803209F086C18091E42B83
:1046A000882309F481C11092E42B19821A82C8016F
:1046B0000E94A826C80108960E94A82689818170B8
:1046C000806C8E7F89831A8241E050E0BE016F5F6B
:1046D0007F4FC8010E94B02641E050E0BE016E5FEE
:1046E0007F4FC8010E94B026C8010E94601F882326
:1046F00009F45AC180912F2C8F7D80932F2C8091AB
:104700002E2C806180932E2C40E355E760E070E012
:1047100084EA98E247C18EEA98E20E94F42CC8012C
:104720000E94A826C80108960E94A82641E050E0F1
:1047300061E07CE2C8010E94B02662E07CE28091E8
:104740000F2C9091102C0E94C91F482F50E062E05E
:104750007CE2C8010E94B02642E050E066E07CE2C4
:10476000C8010E94B0264091062C5091072C542776
:10477000452754276091082C7091092CC8010E948C
:10478000B0268091012C8670823071F441E050E0B7
:104790006BE07CE2C8010E94B02641E050E06AE094
:1047A0007CE2C8010E94B02640910C2C50E0609140
:1047B0000D2C70910E2CC8010E94B02680912F2CD8
:1047C00082FD04C08091012C83FFD8C0C8010E94E3
:1047D000601F882309F4D2C080912F2C8B7F809397
:1047E0002F2C8091012C8670823009F0C7C08091F7
:1047F0002E2C806280932E2CC1C08EEA98E20E94FB
:10480000F42CC8010E94A826C80108960E94A82678
:1048100041E050E063EF7BE2C8010E94B02664EF04
:104820007BE28091FF2B9091002C0E94C91F482FA2
:1048300050E064EF7BE2C8010E94B02641E050E006
:1048400069EF7BE2C8010E94B02641E050E068EFCA
:104850007BE2C8010E94B02642E050E06AEF7BE2B2
:10486000C8010E94B0264091FA2B5091FB2B54278F
:10487000452754276091FC2B7091FD2BC8010E94A5
:10488000B02641E050E06EEF7BE2C8010E94B02606
:10489000C8010E94601F882309F470C080912F2CEA
:1048A000877F80932F2C80912E2C846080932E2CD8
:1048B0001092E22B40E355E760E070E08AE998E26D
:1048C0005BC08EEA98E20E94F42CC8010E94A826E0
:1048D000C80108960E94A82641E050E066EE7BE2FF
:1048E000C8010E94B02667EE7BE28091F12B909187
:1048F000F22B0E94C91F482F50E067EE7BE2C801EF
:104900000E94B02641E050E06CEE7BE2C8010E94BC
:10491000B02641E050E06BEE7BE2C8010E94B02679
:1049200042E050E06DEE7BE2C8010E94B02640916B
:10493000ED2B5091EE2B5427452754276091EF2BF8
:104940007091F02BC8010E94B026C8010E94601F20
:104950008823A1F080912F2C8F7E80932F2C809123
:104960002E2C886080932E2C1092E12B40E355E78B
:1049700060E070E080E998E20E94242D20911E2CD6
:1049800030911F2C2115310579F03227232732274A
:1049900021503109A8EEB3E00E94504FAB01BC0199
:1049A0008EEA98E20E94242D8091DC2B0F900F90CC
:1049B000DF91CF911F910F910895CF92DF92EF92E7
:1049C000FF920F931F93CF93DF93CDB7DEB7299755
:1049D000CDBFDEBF7C0119868091E32B811108C019
:1049E0008091E22B811104C08091E12B882329F072
:1049F0001092DC2BC7010E94771FF70126853785AF
:104A00008091DC2B232B09F497C1823021F0833075
:104A100009F477C08FC18091E52B81116CC00091A2
:104A20001E2C10911F2C88EB98E20E94F42C670139
:104A3000F8E0CF0ED11C41E050E0BE01675F7F4F30
:104A4000C6010E94F3268985807F803209F053C019
:104A5000BE016F5F7F4F84E0FB0111928A95E9F7F9
:104A600041E050E0C6010E94212741E050E0BE0134
:104A70006E5F7F4FC6010E94212741E050E0BE01DA
:104A80006D5F7F4FC6010E94212741E050E0BE01CB
:104A90006C5F7F4FC6010E9421278C81882311F013
:104AA00080E001C083E08093DC2B833009F042C1B9
:104AB000302F212F2115310589F080912F2C806214
:104AC00080932F2C21503109A8EEB3E00E94504F63
:104AD000AB01BC018EEA98E20E94242D80E090E0B8
:104AE0000E9467016093DD2B7093DE2B8093DF2B98
:104AF0009093E02B1FC11092DC2BC7010E94771FFF
:104B000019C18701085F1F4F41E050E0BE01675F98
:104B10007F4FC8010E94F326898582958F70893066
:104B200099F138F4833009F4CEC0843009F4CFC051
:104B300001C18B3009F47AC08D3009F0FBC080913F
:104B40002E2C84FFF7C08091E32B8111F3C084EAFF
:104B500098E20E94F42C19821A8241E050E0BE01D2
:104B60006F5F7F4FC8010E94212780911E2C90917A
:104B70001F2C892B29F080912F2C806280932F2C61
:104B8000C8010E94A826D6C080912E2C82FFD2C0D8
:104B90008091E22B8111CEC08AE998E20E94F42C28
:104BA000BE016F5F7F4F88E0FB0111928A95E9F7A4
:104BB00041E050E0C8010E94212741E050E0BE01E1
:104BC0006E5F7F4FC8010E94212741E050E0BE0187
:104BD0006A5F7F4FC8010E94212741E050E0BE017B
:104BE000695F7F4FC8010E9421279F818091F82B28
:104BF000981711F0F12C16C09E818091F92B981313
:104C0000F9CF41E050E0BE01685F7F4FC8010E94CC
:104C100021278885803871F39091FE2B981750F3E7
:104C200093E0F92E80912E2C8B7F45C080912E2C05
:104C300083FF80C08091E12B81117CC080E998E2E4
:104C40000E94F42CBE016F5F7F4F84E0FB01119244
:104C50008A95E9F741E050E0C8010E94212741E030
:104C600050E0BE016E5F7F4FC8010E9421278A81FC
:104C70008230D1F441E050E0BE016D5F7F4FC8014A
:104C80000E94212741E050E0BE016C5F7F4FC801C8
:104C90000E9421279C818091EB2B981305C09B815A
:104CA0008091EC2B981711F0F12C02C083E0F82EC4
:104CB00080912E2C877F80932E2CC8010E94A826DD
:104CC000F092DC2B37C0C7010E94DD1F33C0BE014C
:104CD0006F5F7F4FFB0111928A95E9F741E050E049
:104CE000C8010E94212741E050E0BE016E5F7F4F66
:104CF000C8010E94212741E050E0BE016C5F7F4F58
:104D0000C8010E94212741E050E0BE016D5F7F4F46
:104D1000C8010E9421279B8180910A2C98130AC008
:104D20009C8180910B2C981305C080912E2C8F7D37
:104D300080932E2C8091DC2B2996CDBFDEBFDF9196
:104D4000CF911F910F91FF90EF90DF90CF9008953A
:104D5000FC0180819181828393831682178208955A
:104D6000EF92FF920F931F93CF93DF93FC01EB0120
:104D70007A0100811181648175819B012150310983
:104D8000200F311F82819381801B910B46815781B7
:104D9000840F951F0E94E14ED801A80FB91FAE01E4
:104DA0004E0D5F1DC417D507B1F02A173B0710F44D
:104DB000A081B18186819781892B29F0828193819D
:104DC000A817B90741F089918D9386819781019643
:104DD00086839783E7CFC701DF91CF911F910F9112
:104DE000FF90EF9008950F931F93CF93DF93FC01F3
:104DF000C281D38124813581215031098081918103
:104E0000280F391F8B0180E090E084179507A1F0EF
:104E1000668177818617970778F4BE01680F791F3E
:104E2000DB016C91D8016D938D012C173D0710F4B7
:104E3000C081D1810196E9CFDF91CF911F910F9170
:104E40000895CF93DF93FC012481358121503109EE
:104E500080819181280F391FEB0180E090E0841759
:104E60009507E1F066817781672BC1F0A281B3815C
:104E70006C916993628173816F5F7F4F62837383EB
:104E8000A681B7811197A683B7832617370720F429
:104E900060817181628373830196E1CFDF91CF914D
:104EA000089580930C3190930D31089580910C31C9
:104EB00090910D31089541E068ED81E690E00E9407
:104EC000522F80E00895E0EAF8E0848188608483CE
:104ED000858181608583E0E3FCE280818E7F808331
:104EE00013868EE00895E0E3FCE280818E7F80836C
:104EF000138680E00895E0EAF8E08481836084838B
:104F0000E0E3FCE280818E7F8083138680E0089559
:104F1000E0E3FCE28081886080838181880F81608A
:104F20008093A70884E008950C948827E0E3FCE2CE
:104F30008081886080838181880F8093A70883E0C7
:104F400008950C9496278091302C877F8093302C85
:104F500082E080933B2CE091402CF091412C809199
:104F60004C2C90914D2C0995823021F0833021F406
:104F70000C9496270C9488270C947B27E0EAF8E0A1
:104F800084818B7F848384E00895E0EAF8E0848163
:104F90008B7F848383E00895E0EAF8E08481846075
:104FA0008483848183608483E0E3FCE280818E7F5C
:104FB0008083138680E00895E0EAF8E084818460CD
:104FC000848388E008958091A50888608093A5086F
:104FD00082E080933B2CE0913E2CF0913F2C80911D
:104FE0004A2C90914B2C0995823021F0833021F48A
:104FF0000C9496270C9488270C946327E0EAF8E039
:10500000848188608483858181608583E0E3FCE21C
:1050100080818E7F808382E083878EE008958091F7
:10502000A508806C8093A5088091302C83FF07C071
:105030008091A50884FF03C08FE080933A2C809173
:10504000A50883FF03C080E180933A2C8091A508D6
:1050500082FF03C081E180933A2CE0913A2CF0E08A
:10506000EE0FFF1FEE53F74D0190F081E02D0995F3
:1050700080933A2C089581E0089585E0089590E0AA
:10508000FC01EE0FFF1FE45CF34D6115710551F05B
:1050900060837183880F991FFC01E85BF34D4083A7
:1050A000518308952BE338E220833183880F991FC1
:1050B000FC01E85BF34D1082118208958091A508F0
:1050C00084FF13C0E091422CF091432C80914E2C30
:1050D00090914F2C0995823021F0833021F40C946B
:1050E00096270C9488270C947B278091302C877FFF
:1050F0008093302CE091322CF091332CCF0101962B
:105100008093322C9093332C80818093A8088091D7
:10511000342C9091352C01978093342C9093352C1E
:10512000892B11F485E0089583E008958091302C57
:10513000877F8093302C8091342C9091352C209156
:10514000A4088130910511F4246001C02B7F2093C5
:10515000A40801978093342C9093352CE091322C45
:10516000F091332C892B09F58091A80880838091D8
:10517000322C9091332C01968093322C9093332CC7
:105180008091302C84608093302CE0913C2CF09105
:105190003D2C8091482C9091492C09958250823069
:1051A00010F40C94DC270C94CC278091A808808301
:1051B0008091322C9091332C01968093322C9093D5
:1051C000332C8091A40882608093A40884E0089521
:1051D0008091A50884FF0EC0E091422CF091432CF1
:1051E00080914E2C90914F2C09958230B9F08330EC
:1051F000B9F01AC08091302C84608093302CE091FB
:105200003C2CF0913D2C8091482C9091492C099593
:10521000833031F0843031F0823031F40C948827BF
:105220000C9496270C945E280C947B270C9488276A
:10523000AB01BC0180E00C943F28AB01BC0182E0D3
:105240000C943F28E0EAF8E08DE2868381EC8383CA
:1052500080E008959091302C91FD53C08093312CC3
:10526000892F847F9EE090933A2C24EF31E02093A5
:10527000382C3093392C826084608093302C8BE3FF
:1052800098E280933C2C90933D2C1092482C1092E5
:10529000492C80933E2C90933F2C10924A2C1092D4
:1052A0004B2C8093402C9093412C10924C2C1092BC
:1052B0004D2C8093422C9093432C10924E2C1092A4
:1052C0004F2C8DE398E28093442C9093452C1092C0
:1052D000502C1092512C8091A40888608093A408CF
:1052E0008091A50881608093A5088091A508806CB5
:1052F0008093A5088091A308806C8093A30880E028
:10530000089581E008958091A50882FF08C08091EA
:10531000302C8E7F8093302C82E080933B2C8091C8
:10532000302C80FD13C08D7F8093302C8FEF8093C5
:10533000312C8091A508806C8093A5088091A308EA
:105340008F738093A30880913B2C089581E008958A
:105350009C019091302C92FF0CC02093322C309302
:10536000332C6093342C7093352C892F8B7F809352
:10537000302C08959091302C90FD0EC09160909348
:10538000302C882311F081E001C082E080933A2C18
:105390000E940F2880E0089581E0089580E00C9439
:1053A000BA291F920F920FB60F9211242F933F9399
:1053B0004F935F936F937F938F939F93AF93BF931D
:1053C000EF93FF930E940F28FF91EF91BF91AF9150
:1053D0009F918F917F916F915F914F913F912F910D
:1053E0000F900FBE0F901F90189580E00895E0E990
:1053F000F4E0808188608193E83984E0F807C9F798
:10540000E0EBF4E0808188608193E83B84E0F8077A
:10541000C9F7E0E1F4E0808188608193E83184E0BD
:10542000F807C9F7E0E3F4E0808188608193E8330E
:1054300084E0F807C9F7E0E5F4E0808188608193B3
:10544000E83584E0F807C9F7E0E7F4E08081886098
:105450008193E83784E0F807C9F7089581E008955B
:1054600083E0089580914008E091792CEF5FEF731D
:105470009091782CE91759F0E093792CF0E0E658F8
:10548000F34D80838091772C8F5F8093772C0895E4
:105490008091542C882389F0E091552CEF5FEF71B7
:1054A000E093552CF0E0E95AF34D80818093420857
:1054B0008091542C81508093542C8091542C8111D4
:1054C00005C0809145088F7D8093450808951F92FF
:1054D0000F920FB60F9211242F933F934F935F9328
:1054E0006F937F938F939F93AF93BF93EF93FF93AC
:1054F000E091E828F091E928309709F00995FF91AB
:10550000EF91BF91AF919F918F917F916F915F913B
:105510004F913F912F910F900FBE0F901F901895B4
:105520001F920F920FB60F9211242F933F934F9318
:105530005F936F937F938F939F93AF93BF93EF93FB
:10554000FF93E091E628F091E728309709F009955C
:10555000FF91EF91BF91AF919F918F917F916F914B
:105560005F914F913F912F910F900FBE0F901F9021
:1055700018951F920F920FB60F9211240F900FBE25
:105580000F901F9018959091772C81E0911101C098
:1055900080E008958091772C8823E1F3E091782CC6
:1055A000EF5FEF73E093782C0FB6F8940F92809131
:1055B000772C81508093772C0F900FBEF0E0E65847
:1055C000F34D808108959091562C9F5F9F7120919B
:1055D000542C2032E1F3E92FF0E0E95AF34D8083B7
:1055E0009093562C0FB6F8940F928091542C8F5FA5
:1055F0008093542C0F900FBE809145088062809359
:10560000450808950E94E32A80E090E00895E0E4D0
:10561000F8E086E490E18087918780EC868383E0E0
:1056200087831092782C1092792C1092772C1092FC
:10563000552C1092562C1092542C8AEE98E280939E
:10564000AF319093B03180E0089560E070E0CB011D
:105650000895809141018111FCCF81E08093400148
:1056600080934701809342010895E0E4F1E0828154
:105670008E7F82831092BF2C1092C02C1092C12C6E
:105680001092C22C1092BA2C0895CF92DF92EF9212
:10569000FF920F931F930FEF1FEF20E030E06801A0
:1056A0007901C61AD70AE80AF90AC092BB2CD0922F
:1056B000BC2CE092BD2CF092BE2C8091410181FD6A
:1056C000FCCF8091BB2C9091BC2CA091BD2CB091B3
:1056D000BE2C80934801909349011F910F91FF9038
:1056E000EF90DF90CF900895CF92DF92EF92FF92EC
:1056F0000F931F930091BF2C1091C02C2091C12CAF
:105700003091C22C600F711F821F931F2091BA2C01
:10571000222319F100914801109149012091430180
:1057200020FD03C020E030E004C00FEF1FEF20E0B9
:1057300030E0C090BB2CD090BC2CE090BD2CF09001
:10574000BE2CDC01CB018C199D09AE09BF09BC013F
:10575000CD01600F711F821F931F1F910F91FF904A
:10576000EF90DF90CF9008950F931F93CF93DF9327
:10577000C091C52CD091C62C60E070E0CB010E9496
:10578000742B209781F00E811F8128853985061B97
:10579000170B280B390B0E831F83288739870C8042
:1057A000DD81C02DEECF0091BF2C1091C02C209137
:1057B000C12C3091C22C061B170B280B390B009300
:1057C000BF2C1093C02C2093C12C3093C22CDF919E
:1057D000CF911F910F910895BF92CF92DF92EF92D8
:1057E000FF920F931F93CF93DF93EC01CE80DF8066
:1057F000E884F9840091C52C1091C62C1C821D826E
:105800008091BF2C9091C02CA091C12CB091C22C42
:10581000C816D906EA06FB0668F40E94B42B2FEFDF
:10582000E21AF20AC61AD70AE80AF90ACE82DF8219
:10583000E886F986E0E0F0E0BB24B3940115110599
:1058400061F0D80116964D915D916D917C911997FB
:10585000C416D506E606F70620F4B1E0BB1221C057
:1058600005C0B12CF80104811581E8CF6FEF7FEFFF
:1058700080E090E00E94452BB0924301E091C52C5E
:10588000F091C62C28E2E83FF20719F40480F58174
:10589000E02DEC83FD83C093C52CD093C62C81E012
:1058A00007C0848195818C839D83C483D58380E0E8
:1058B000DF91CF911F910F91FF90EF90DF90CF90EC
:1058C000BF9008950F931F93809142018E7F809324
:1058D0004201E091C52CF091C62C309721F41F9124
:1058E0000F910C94352B0091BF2C1091C02C20915E
:1058F000C12C3091C22C86819781A085B185BC01D5
:10590000CD01601B710B820B930B6115710521E0BA
:105910008207910508F18091BF2C9091C02CA09135
:10592000C12CB091C22C0197AF4FBF4F8093FE287E
:105930009093FF28A0930029B0930129E093FC28BD
:10594000F093FD2888EF98E28093C52C9093C62CA5
:105950006FEF7FEF80E090E00E94452B8091420145
:1059600081608093420181E08093BA2C1F910F9156
:105970000895FC0180819181892BA1F180914201E0
:105980008E7F80934201808191818617970761F411
:10599000A081B18114968D919C91159780839183FC
:1059A0000E94622C81E008950190F081E02DA0E03A
:1059B000B0E0309781F0E617F70741F484819581D4
:1059C00014968D939C93159781E006C0DF010480A7
:1059D000F581E02DEECF80E09091420191609093AF
:1059E0004201089580E00895CF93DF93EC01BC015C
:1059F00085EC9CE20E94B92C811105C0BE0183ECAC
:105A00009CE20E94B92C1C821D82DF91CF910895E7
:105A1000FC01148215822091C32C3091C42C232BBD
:105A200029F48093C32C9093C42C0895E091C32C47
:105A3000F091C42C248135812115310511F0F90133
:105A4000F9CF848395830895CF92DF92EF92FF92EE
:105A5000CF93DF93EC016A017B010E94F42C8091CB
:105A600042018E7F80934201C701B6010E94742BD0
:105A70006E837F8388879987CE010E94EC2B8823D1
:105A800041F0DF91CF91FF90EF90DF90CF900C9499
:105A9000622C8091BA2C882329F080914201816088
:105AA00080934201DF91CF91FF90EF90DF90CF90F4
:105AB0000895CF93DF938091C32C9091C42C892BB0
:105AC00079F190914201809142018E7F8093420151
:105AD000C091C32CD091C42CE091C32CF091C42C64
